{
  "_format": "hh-sol-artifact-1",
  "contractName": "MeerChange",
  "sourceName": "contracts/MeerChange.sol",
  "abi": [
    {
      "anonymous": false,
      "inputs": [
        {
          "indexed": false,
          "internalType": "bytes32",
          "name": "txid",
          "type": "bytes32"
        },
        {
          "indexed": false,
          "internalType": "uint32",
          "name": "idx",
          "type": "uint32"
        },
        {
          "indexed": false,
          "internalType": "uint64",
          "name": "fee",
          "type": "uint64"
        },
        {
          "indexed": false,
          "internalType": "string",
          "name": "sig",
          "type": "string"
        }
      ],
      "name": "Export",
      "type": "event"
    },
    {
      "anonymous": false,
      "inputs": [],
      "name": "Import",
      "type": "event"
    },
    {
      "inputs": [],
      "name": "TO_UTXO_PRECISION",
      "outputs": [
        {
          "internalType": "uint256",
          "name": "",
          "type": "uint256"
        }
      ],
      "stateMutability": "view",
      "type": "function"
    },
    {
      "inputs": [
        {
          "internalType": "bytes32",
          "name": "txid",
          "type": "bytes32"
        },
        {
          "internalType": "uint32",
          "name": "idx",
          "type": "uint32"
        },
        {
          "internalType": "uint64",
          "name": "fee",
          "type": "uint64"
        },
        {
          "internalType": "string",
          "name": "sig",
          "type": "string"
        }
      ],
      "name": "export",
      "outputs": [],
      "stateMutability": "nonpayable",
      "type": "function"
    },
    {
      "inputs": [],
      "name": "getExportCount",
      "outputs": [
        {
          "internalType": "uint64",
          "name": "",
          "type": "uint64"
        }
      ],
      "stateMutability": "view",
      "type": "function"
    },
    {
      "inputs": [],
      "name": "getImportCount",
      "outputs": [
        {
          "internalType": "uint64",
          "name": "",
          "type": "uint64"
        }
      ],
      "stateMutability": "view",
      "type": "function"
    },
    {
      "inputs": [],
      "name": "getImportTotal",
      "outputs": [
        {
          "internalType": "uint256",
          "name": "",
          "type": "uint256"
        }
      ],
      "stateMutability": "view",
      "type": "function"
    },
    {
      "inputs": [],
      "name": "importToUtxo",
      "outputs": [],
      "stateMutability": "payable",
      "type": "function"
    }
  ],
  "bytecode": "0x608060405234801561001057600080fd5b50610491806100206000396000f3fe6080604052600436106100655760003560e01c8063994b58f811610043578063994b58f8146100ee578063a8770e6914610107578063da2320261461010f57600080fd5b806347b2c7d71461006a5780635090ea051461008c57806387e9ff23146100cc575b600080fd5b34801561007657600080fd5b50475b6040519081526020015b60405180910390f35b34801561009857600080fd5b5060005468010000000000000000900467ffffffffffffffff165b60405167ffffffffffffffff9091168152602001610083565b3480156100d857600080fd5b506100ec6100e73660046102b1565b61012e565b005b3480156100fa57600080fd5b506100796402540be40081565b6100ec6101b4565b34801561011b57600080fd5b5060005467ffffffffffffffff166100b3565b6000805467ffffffffffffffff16908061014783610360565b91906101000a81548167ffffffffffffffff021916908367ffffffffffffffff160217905550507f8de70f4a2cc28f971578497609b5a7bcd97e40800d857fe09d6057bd382c658285858585856040516101a59594939291906103ae565b60405180910390a15050505050565b60006101c56402540be40034610420565b905060008111610235576040517f08c379a000000000000000000000000000000000000000000000000000000000815260206004820181905260248201527f546f205554584f20616d6f756e74206d757374206e6f7420626520656d707479604482015260640160405180910390fd5b6000805468010000000000000000900467ffffffffffffffff1690600861025b83610360565b91906101000a81548167ffffffffffffffff021916908367ffffffffffffffff160217905550507fb9ba2e23b17fbc3f0029c3a6600ef2dd4484bea87a99c7aab54caf84dedcf96b60405160405180910390a150565b6000806000806000608086880312156102c957600080fd5b85359450602086013563ffffffff811681146102e457600080fd5b9350604086013567ffffffffffffffff808216821461030257600080fd5b9093506060870135908082111561031857600080fd5b818801915088601f83011261032c57600080fd5b81358181111561033b57600080fd5b89602082850101111561034d57600080fd5b9699959850939650602001949392505050565b600067ffffffffffffffff8083168181036103a4577f4e487b7100000000000000000000000000000000000000000000000000000000600052601160045260246000fd5b6001019392505050565b85815263ffffffff8516602082015267ffffffffffffffff8416604082015260806060820152816080820152818360a0830137600081830160a090810191909152601f9092017fffffffffffffffffffffffffffffffffffffffffffffffffffffffffffffffe0160101949350505050565b600082610456577f4e487b7100000000000000000000000000000000000000000000000000000000600052601260045260246000fd5b50049056fea2646970667358221220d95f125db711bf76c22ef38e58c54fb5c15f6ebe6cd0bdd3062631a03ae6e95464736f6c634300080f0033",
  "linkReferences": {},
  "deployedLinkReferences": {}
}