{
  "_format": "hh-sol-artifact-1",
  "contractName": "MeerChange",
  "sourceName": "contracts/MeerChange.sol",
  "abi": [
    {
      "anonymous": false,
      "inputs": [
        {
          "indexed": false,
          "internalType": "bytes32",
          "name": "txid",
          "type": "bytes32"
        },
        {
          "indexed": false,
          "internalType": "uint32",
          "name": "idx",
          "type": "uint32"
        }
      ],
      "name": "Export",
      "type": "event"
    },
    {
      "anonymous": false,
      "inputs": [
        {
          "indexed": false,
          "internalType": "bytes32",
          "name": "txid",
          "type": "bytes32"
        },
        {
          "indexed": false,
          "internalType": "uint32",
          "name": "idx",
          "type": "uint32"
        },
        {
          "indexed": false,
          "internalType": "uint64",
          "name": "fee",
          "type": "uint64"
        },
        {
          "indexed": false,
          "internalType": "string",
          "name": "sig",
          "type": "string"
        }
      ],
      "name": "Export4337",
      "type": "event"
    },
    {
      "anonymous": false,
      "inputs": [],
      "name": "Import",
      "type": "event"
    },
    {
      "inputs": [],
      "name": "TO_UTXO_PRECISION",
      "outputs": [
        {
          "internalType": "uint256",
          "name": "",
          "type": "uint256"
        }
      ],
      "stateMutability": "view",
      "type": "function"
    },
    {
      "inputs": [
        {
          "internalType": "bytes32",
          "name": "txid",
          "type": "bytes32"
        },
        {
          "internalType": "uint32",
          "name": "idx",
          "type": "uint32"
        }
      ],
      "name": "export",
      "outputs": [],
      "stateMutability": "nonpayable",
      "type": "function"
    },
    {
      "inputs": [
        {
          "internalType": "bytes32",
          "name": "txid",
          "type": "bytes32"
        },
        {
          "internalType": "uint32",
          "name": "idx",
          "type": "uint32"
        },
        {
          "internalType": "uint64",
          "name": "fee",
          "type": "uint64"
        },
        {
          "internalType": "string",
          "name": "sig",
          "type": "string"
        }
      ],
      "name": "export4337",
      "outputs": [],
      "stateMutability": "nonpayable",
      "type": "function"
    },
    {
      "inputs": [],
      "name": "getExportCount",
      "outputs": [
        {
          "internalType": "uint64",
          "name": "",
          "type": "uint64"
        }
      ],
      "stateMutability": "view",
      "type": "function"
    },
    {
      "inputs": [],
      "name": "getImportCount",
      "outputs": [
        {
          "internalType": "uint64",
          "name": "",
          "type": "uint64"
        }
      ],
      "stateMutability": "view",
      "type": "function"
    },
    {
      "inputs": [],
      "name": "getImportTotal",
      "outputs": [
        {
          "internalType": "uint256",
          "name": "",
          "type": "uint256"
        }
      ],
      "stateMutability": "view",
      "type": "function"
    },
    {
      "inputs": [],
      "name": "importToUtxo",
      "outputs": [],
      "stateMutability": "payable",
      "type": "function"
    }
  ],
  "bytecode": "0x608060405234801561001057600080fd5b50610582806100206000396000f3fe6080604052600436106100705760003560e01c80639801767c1161004e5780639801767c146100f9578063994b58f814610119578063a8770e6914610132578063da2320261461013a57600080fd5b806347b2c7d7146100755780634ccccead146100975780635090ea05146100b9575b600080fd5b34801561008157600080fd5b50475b6040519081526020015b60405180910390f35b3480156100a357600080fd5b506100b76100b2366004610381565b610159565b005b3480156100c557600080fd5b5060005468010000000000000000900467ffffffffffffffff165b60405167ffffffffffffffff909116815260200161008e565b34801561010557600080fd5b506100b76101143660046103ad565b6101e5565b34801561012557600080fd5b506100846402540be40081565b6100b761026b565b34801561014657600080fd5b5060005467ffffffffffffffff166100e0565b6000805467ffffffffffffffff16908061017283610451565b91906101000a81548167ffffffffffffffff021916908367ffffffffffffffff160217905550507fa752968fe9a336e1e2de83b6e2f3bc1dd7d05dd3359dd92d9b92993209fffe3982826040516101d992919091825263ffffffff16602082015260400190565b60405180910390a15050565b6000805467ffffffffffffffff1690806101fe83610451565b91906101000a81548167ffffffffffffffff021916908367ffffffffffffffff160217905550507fd0c588a715ffec02e91f35aa0907d659e0f19d01b5eb5a4229e2d43f448edc63858585858560405161025c95949392919061049f565b60405180910390a15050505050565b600061027c6402540be40034610511565b9050600081116102ec576040517f08c379a000000000000000000000000000000000000000000000000000000000815260206004820181905260248201527f546f205554584f20616d6f756e74206d757374206e6f7420626520656d707479604482015260640160405180910390fd5b6000805468010000000000000000900467ffffffffffffffff1690600861031283610451565b91906101000a81548167ffffffffffffffff021916908367ffffffffffffffff160217905550507fb9ba2e23b17fbc3f0029c3a6600ef2dd4484bea87a99c7aab54caf84dedcf96b60405160405180910390a150565b803563ffffffff8116811461037c57600080fd5b919050565b6000806040838503121561039457600080fd5b823591506103a460208401610368565b90509250929050565b6000806000806000608086880312156103c557600080fd5b853594506103d560208701610368565b9350604086013567ffffffffffffffff80821682146103f357600080fd5b9093506060870135908082111561040957600080fd5b818801915088601f83011261041d57600080fd5b81358181111561042c57600080fd5b89602082850101111561043e57600080fd5b9699959850939650602001949392505050565b600067ffffffffffffffff808316818103610495577f4e487b7100000000000000000000000000000000000000000000000000000000600052601160045260246000fd5b6001019392505050565b85815263ffffffff8516602082015267ffffffffffffffff8416604082015260806060820152816080820152818360a0830137600081830160a090810191909152601f9092017fffffffffffffffffffffffffffffffffffffffffffffffffffffffffffffffe0160101949350505050565b600082610547577f4e487b7100000000000000000000000000000000000000000000000000000000600052601260045260246000fd5b50049056fea2646970667358221220ad6c76f69de9f53e48383c0d1233fc4c27ecf5111d35acf010490108963498d464736f6c634300080f0033",
  "linkReferences": {},
  "deployedLinkReferences": {}
}